{
  "abi": [
    {
      "inputs": [],
      "stateMutability": "nonpayable",
      "type": "constructor"
    },
    {
      "inputs": [],
      "name": "getConversion",
      "outputs": [
        {
          "internalType": "string",
          "name": "",
          "type": "string"
        }
      ],
      "stateMutability": "pure",
      "type": "function"
    },
    {
      "inputs": [],
      "name": "getLatestPrice",
      "outputs": [
        {
          "internalType": "int256",
          "name": "",
          "type": "int256"
        }
      ],
      "stateMutability": "view",
      "type": "function"
    }
  ],
  "bytecode": {
    "object": "0x608060405234801561001057600080fd5b50600080546001600160a01b03191673694aa1769357215de4fac081bf1f309adc3253061790556101f1806100466000396000f3fe608060405234801561001057600080fd5b50600436106100365760003560e01c80638e15f4731461003b578063900a6d3c14610056575b600080fd5b610043610085565b6040519081526020015b60405180910390f35b604080518082018252600d81526c0c48115512080f481e081554d1609a1b6020820152905161004d91906100fe565b6000805460408051633fabe5a360e21b8152905183926001600160a01b03169163feaf968c9160048083019260a09291908290030181865afa1580156100cf573d6000803e3d6000fd5b505050506040513d601f19601f820116820180604052508101906100f3919061016b565b509195945050505050565b600060208083528351808285015260005b8181101561012b5785810183015185820160400152820161010f565b506000604082860101526040601f19601f8301168501019250505092915050565b805169ffffffffffffffffffff8116811461016657600080fd5b919050565b600080600080600060a0868803121561018357600080fd5b61018c8661014c565b94506020860151935060408601519250606086015191506101af6080870161014c565b9050929550929590935056fea26469706673582212206c7638db688a389b14a07f1641502fd8a96416ddfdfe18807cc86a28a318bda364736f6c63430008110033",
    "linkReferences": {}
  },
  "methodIdentifiers": {
    "getConversion()": "900a6d3c",
    "getLatestPrice()": "8e15f473"
  },
  "id": 0
}