{
  "abi": [
    {
      "inputs": [],
      "stateMutability": "nonpayable",
      "type": "constructor"
    },
    {
      "anonymous": false,
      "inputs": [
        {
          "indexed": true,
          "internalType": "address",
          "name": "owner",
          "type": "address"
        },
        {
          "indexed": true,
          "internalType": "address",
          "name": "spender",
          "type": "address"
        },
        {
          "indexed": false,
          "internalType": "uint256",
          "name": "value",
          "type": "uint256"
        }
      ],
      "name": "Approval",
      "type": "event"
    },
    {
      "anonymous": false,
      "inputs": [
        {
          "indexed": true,
          "internalType": "address",
          "name": "previousOwner",
          "type": "address"
        },
        {
          "indexed": true,
          "internalType": "address",
          "name": "newOwner",
          "type": "address"
        }
      ],
      "name": "OwnershipTransferred",
      "type": "event"
    },
    {
      "anonymous": false,
      "inputs": [
        {
          "indexed": true,
          "internalType": "address",
          "name": "from",
          "type": "address"
        },
        {
          "indexed": true,
          "internalType": "address",
          "name": "to",
          "type": "address"
        },
        {
          "indexed": false,
          "internalType": "uint256",
          "name": "value",
          "type": "uint256"
        }
      ],
      "name": "Transfer",
      "type": "event"
    },
    {
      "anonymous": false,
      "inputs": [
        {
          "indexed": true,
          "internalType": "address",
          "name": "from",
          "type": "address"
        },
        {
          "indexed": false,
          "internalType": "uint256",
          "name": "amount",
          "type": "uint256"
        },
        {
          "indexed": false,
          "internalType": "uint256",
          "name": "exchange",
          "type": "uint256"
        }
      ],
      "name": "newDeposit",
      "type": "event"
    },
    {
      "anonymous": false,
      "inputs": [
        {
          "indexed": true,
          "internalType": "address",
          "name": "from",
          "type": "address"
        },
        {
          "indexed": false,
          "internalType": "uint256",
          "name": "amount",
          "type": "uint256"
        },
        {
          "indexed": false,
          "internalType": "uint256",
          "name": "exchange",
          "type": "uint256"
        }
      ],
      "name": "newRedeem",
      "type": "event"
    },
    {
      "anonymous": false,
      "inputs": [
        {
          "indexed": false,
          "internalType": "address",
          "name": "from",
          "type": "address"
        },
        {
          "indexed": false,
          "internalType": "address",
          "name": "to",
          "type": "address"
        },
        {
          "indexed": false,
          "internalType": "uint256",
          "name": "amount",
          "type": "uint256"
        },
        {
          "indexed": false,
          "internalType": "uint256",
          "name": "time",
          "type": "uint256"
        }
      ],
      "name": "withdrawn",
      "type": "event"
    },
    {
      "inputs": [
        {
          "internalType": "address",
          "name": "owner",
          "type": "address"
        },
        {
          "internalType": "address",
          "name": "spender",
          "type": "address"
        }
      ],
      "name": "allowance",
      "outputs": [
        {
          "internalType": "uint256",
          "name": "",
          "type": "uint256"
        }
      ],
      "stateMutability": "view",
      "type": "function"
    },
    {
      "inputs": [
        {
          "internalType": "address",
          "name": "spender",
          "type": "address"
        },
        {
          "internalType": "uint256",
          "name": "amount",
          "type": "uint256"
        }
      ],
      "name": "approve",
      "outputs": [
        {
          "internalType": "bool",
          "name": "",
          "type": "bool"
        }
      ],
      "stateMutability": "nonpayable",
      "type": "function"
    },
    {
      "inputs": [
        {
          "internalType": "address",
          "name": "account",
          "type": "address"
        }
      ],
      "name": "balanceOf",
      "outputs": [
        {
          "internalType": "uint256",
          "name": "",
          "type": "uint256"
        }
      ],
      "stateMutability": "view",
      "type": "function"
    },
    {
      "inputs": [
        {
          "internalType": "uint256",
          "name": "_amount",
          "type": "uint256"
        }
      ],
      "name": "calculatePriceForSale",
      "outputs": [
        {
          "internalType": "uint256",
          "name": "RedeemedAmount",
          "type": "uint256"
        },
        {
          "internalType": "uint256",
          "name": "Tax",
          "type": "uint256"
        }
      ],
      "stateMutability": "view",
      "type": "function"
    },
    {
      "inputs": [],
      "name": "decimals",
      "outputs": [
        {
          "internalType": "uint8",
          "name": "",
          "type": "uint8"
        }
      ],
      "stateMutability": "view",
      "type": "function"
    },
    {
      "inputs": [
        {
          "internalType": "address",
          "name": "spender",
          "type": "address"
        },
        {
          "internalType": "uint256",
          "name": "subtractedValue",
          "type": "uint256"
        }
      ],
      "name": "decreaseAllowance",
      "outputs": [
        {
          "internalType": "bool",
          "name": "",
          "type": "bool"
        }
      ],
      "stateMutability": "nonpayable",
      "type": "function"
    },
    {
      "inputs": [
        {
          "internalType": "uint256",
          "name": "_amount",
          "type": "uint256"
        }
      ],
      "name": "depositCollateral",
      "outputs": [],
      "stateMutability": "payable",
      "type": "function"
    },
    {
      "inputs": [
        {
          "internalType": "uint256",
          "name": "_amount",
          "type": "uint256"
        }
      ],
      "name": "getExchangeRate",
      "outputs": [
        {
          "internalType": "uint256",
          "name": "",
          "type": "uint256"
        }
      ],
      "stateMutability": "view",
      "type": "function"
    },
    {
      "inputs": [
        {
          "internalType": "address",
          "name": "spender",
          "type": "address"
        },
        {
          "internalType": "uint256",
          "name": "addedValue",
          "type": "uint256"
        }
      ],
      "name": "increaseAllowance",
      "outputs": [
        {
          "internalType": "bool",
          "name": "",
          "type": "bool"
        }
      ],
      "stateMutability": "nonpayable",
      "type": "function"
    },
    {
      "inputs": [],
      "name": "name",
      "outputs": [
        {
          "internalType": "string",
          "name": "",
          "type": "string"
        }
      ],
      "stateMutability": "view",
      "type": "function"
    },
    {
      "inputs": [],
      "name": "owner",
      "outputs": [
        {
          "internalType": "address",
          "name": "",
          "type": "address"
        }
      ],
      "stateMutability": "view",
      "type": "function"
    },
    {
      "inputs": [],
      "name": "priceFeed",
      "outputs": [
        {
          "internalType": "uint256",
          "name": "",
          "type": "uint256"
        }
      ],
      "stateMutability": "view",
      "type": "function"
    },
    {
      "inputs": [],
      "name": "ratio",
      "outputs": [
        {
          "internalType": "uint8",
          "name": "",
          "type": "uint8"
        }
      ],
      "stateMutability": "view",
      "type": "function"
    },
    {
      "inputs": [],
      "name": "renounceOwnership",
      "outputs": [],
      "stateMutability": "nonpayable",
      "type": "function"
    },
    {
      "inputs": [],
      "name": "supplyCap",
      "outputs": [
        {
          "internalType": "uint256",
          "name": "",
          "type": "uint256"
        }
      ],
      "stateMutability": "view",
      "type": "function"
    },
    {
      "inputs": [],
      "name": "symbol",
      "outputs": [
        {
          "internalType": "string",
          "name": "",
          "type": "string"
        }
      ],
      "stateMutability": "view",
      "type": "function"
    },
    {
      "inputs": [],
      "name": "tax",
      "outputs": [
        {
          "internalType": "uint8",
          "name": "",
          "type": "uint8"
        }
      ],
      "stateMutability": "view",
      "type": "function"
    },
    {
      "inputs": [],
      "name": "totalSupply",
      "outputs": [
        {
          "internalType": "uint256",
          "name": "",
          "type": "uint256"
        }
      ],
      "stateMutability": "view",
      "type": "function"
    },
    {
      "inputs": [
        {
          "internalType": "address",
          "name": "to",
          "type": "address"
        },
        {
          "internalType": "uint256",
          "name": "amount",
          "type": "uint256"
        }
      ],
      "name": "transfer",
      "outputs": [
        {
          "internalType": "bool",
          "name": "",
          "type": "bool"
        }
      ],
      "stateMutability": "nonpayable",
      "type": "function"
    },
    {
      "inputs": [
        {
          "internalType": "address",
          "name": "from",
          "type": "address"
        },
        {
          "internalType": "address",
          "name": "to",
          "type": "address"
        },
        {
          "internalType": "uint256",
          "name": "amount",
          "type": "uint256"
        }
      ],
      "name": "transferFrom",
      "outputs": [
        {
          "internalType": "bool",
          "name": "",
          "type": "bool"
        }
      ],
      "stateMutability": "nonpayable",
      "type": "function"
    },
    {
      "inputs": [
        {
          "internalType": "address",
          "name": "newOwner",
          "type": "address"
        }
      ],
      "name": "transferOwnership",
      "outputs": [],
      "stateMutability": "nonpayable",
      "type": "function"
    },
    {
      "inputs": [
        {
          "internalType": "uint256",
          "name": "_amount",
          "type": "uint256"
        }
      ],
      "name": "withdrawCollateral",
      "outputs": [],
      "stateMutability": "nonpayable",
      "type": "function"
    },
    {
      "inputs": [],
      "name": "withdrawTax",
      "outputs": [],
      "stateMutability": "nonpayable",
      "type": "function"
    }
  ],
  "bytecode": {
    "object": "0x60806040526103e86006553480156200001757600080fd5b50604051806040016040528060048152602001632732b7b760e11b815250604051806040016040528060038152602001624e454f60e81b8152508160039081620000629190620001b2565b506004620000718282620001b2565b5050506200008e62000088620000b760201b60201c565b620000bb565b6005805461ffff60a01b191661010160a01b17905569d3c21bcecceda10000006008556200027e565b3390565b600580546001600160a01b038381166001600160a01b0319831681179093556040519116919082907f8be0079c531659141344cd1fd0a4f28419497f9722a3daafe3b4186f6b6457e090600090a35050565b634e487b7160e01b600052604160045260246000fd5b600181811c908216806200013857607f821691505b6020821081036200015957634e487b7160e01b600052602260045260246000fd5b50919050565b601f821115620001ad57600081815260208120601f850160051c81016020861015620001885750805b601f850160051c820191505b81811015620001a95782815560010162000194565b5050505b505050565b81516001600160401b03811115620001ce57620001ce6200010d565b620001e681620001df845462000123565b846200015f565b602080601f8311600181146200021e5760008415620002055750858301515b600019600386901b1c1916600185901b178555620001a9565b600085815260208120601f198616915b828110156200024f578886015182559484019460019091019084016200022e565b50858210156200026e5787850151600019600388901b60f8161c191681555b5050505050600190811b01905550565b61138b806200028e6000396000f3fe6080604052600436106101405760003560e01c8063741bef1a116100b6578063a9059cbb1161006f578063a9059cbb14610379578063bad4a01f14610399578063dd62ed3e146103ac578063dfa20f0a146103cc578063e1dee0d7146103e1578063f2fde38b1461041657600080fd5b8063741bef1a146102cf5780638da5cb5b146102e55780638f770ad01461030d57806395d89b411461032357806399c8d55614610338578063a457c2d71461035957600080fd5b8063395093511161010857806339509351146102015780636112fe2e1461022157806362aaf0891461024357806370a0823114610263578063715018a61461029957806371ca337d146102ae57600080fd5b806306fdde0314610145578063095ea7b31461017057806318160ddd146101a057806323b872dd146101bf578063313ce567146101df575b600080fd5b34801561015157600080fd5b5061015a610436565b6040516101679190611131565b60405180910390f35b34801561017c57600080fd5b5061019061018b36600461119b565b6104c8565b6040519015158152602001610167565b3480156101ac57600080fd5b506002545b604051908152602001610167565b3480156101cb57600080fd5b506101906101da3660046111c5565b6104e2565b3480156101eb57600080fd5b5060125b60405160ff9091168152602001610167565b34801561020d57600080fd5b5061019061021c36600461119b565b610506565b34801561022d57600080fd5b5061024161023c366004611201565b610528565b005b34801561024f57600080fd5b506101b161025e366004611201565b6106a7565b34801561026f57600080fd5b506101b161027e36600461121a565b6001600160a01b031660009081526020819052604090205490565b3480156102a557600080fd5b506102416106c9565b3480156102ba57600080fd5b506005546101ef90600160a01b900460ff1681565b3480156102db57600080fd5b506101b160065481565b3480156102f157600080fd5b506005546040516001600160a01b039091168152602001610167565b34801561031957600080fd5b506101b160085481565b34801561032f57600080fd5b5061015a6106dd565b34801561034457600080fd5b506005546101ef90600160a81b900460ff1681565b34801561036557600080fd5b5061019061037436600461119b565b6106ec565b34801561038557600080fd5b5061019061039436600461119b565b610767565b6102416103a7366004611201565b610775565b3480156103b857600080fd5b506101b16103c736600461123c565b6108fa565b3480156103d857600080fd5b50610241610925565b3480156103ed57600080fd5b506104016103fc366004611201565b610a62565b60408051928352602083019190915201610167565b34801561042257600080fd5b5061024161043136600461121a565b610ae6565b6060600380546104459061126f565b80601f01602080910402602001604051908101604052809291908181526020018280546104719061126f565b80156104be5780601f10610493576101008083540402835291602001916104be565b820191906000526020600020905b8154815290600101906020018083116104a157829003601f168201915b5050505050905090565b6000336104d6818585610b5f565b60019150505b92915050565b6000336104f0858285610c84565b6104fb858585610cf8565b506001949350505050565b6000336104d681858561051983836108fa565b61052391906112bf565b610b5f565b600081116105515760405162461bcd60e51b8152600401610548906112d2565b60405180910390fd5b336000908152602081905260409020548111156105805760405162461bcd60e51b8152600401610548906112d2565b60008061058c83610a62565b9150915080600760008282546105a291906112bf565b909155506105c39050336105be85670de0b6b3a7640000611309565b610e9c565b60065460405133917e6400e4cce37e94263a48bf88cb80ead64c00f44276315c0c4a98d73ed06a10916105fe91878252602082015260400190565b60405180910390a26000336001600160a01b0316836040515b60006040518083038185875af1925050503d8060008114610654576040519150601f19603f3d011682016040523d82523d6000602084013e610659565b606091505b50509050806106a15760405162461bcd60e51b81526020600482015260146024820152732330b4b632b2103a379039b2b7321022ba3432b960611b6044820152606401610548565b50505050565b6006546000906106bf83670de0b6b3a7640000611309565b6104dc9190611320565b6106d1610fc6565b6106db6000611020565b565b6060600480546104459061126f565b600033816106fa82866108fa565b90508381101561075a5760405162461bcd60e51b815260206004820152602560248201527f45524332303a2064656372656173656420616c6c6f77616e63652062656c6f77604482015264207a65726f60d81b6064820152608401610548565b6104fb8286868403610b5f565b6000336104d6818585610cf8565b600081116107955760405162461bcd60e51b8152600401610548906112d2565b600554600090600160a01b900460ff166107b783670de0b6b3a7640000611309565b6107c19190611309565b90506000821180156107d557506008548111155b6108475760405162461bcd60e51b815260206004820152603e60248201527f416d6f756e74206d7573742062652067726561746572207468616e203020616e60448201527f64206c6f77657220616e6420657175616c20746f20737570706c7943617000006064820152608401610548565b6000610852836106a7565b9050348111156108975760405162461bcd60e51b815260206004820152601060248201526f0acc2d8eaca40dcdee840cadcdeeaced60831b6044820152606401610548565b6108a13383611072565b60065460405133917f45751137d6df48fc3f75b9888b77c9d8f4689c5baafe29811a9a86e43706aecf916108dd91878252602082015260400190565b60405180910390a26000336108f28334611342565b604051610617565b6001600160a01b03918216600090815260016020908152604080832093909416825291909152205490565b61092d610fc6565b60006007541161097f5760405162461bcd60e51b815260206004820152601a60248201527f746178206d7573742062652067726561746572207468616e20300000000000006044820152606401610548565b60078054600091829055604051909190339083908381818185875af1925050503d80600081146109cb576040519150601f19603f3d011682016040523d82523d6000602084013e6109d0565b606091505b5050905080610a185760405162461bcd60e51b81526020600482015260146024820152732330b4b632b2103a379039b2b7321022ba3432b960611b6044820152606401610548565b604080513081523360208201529081018390524260608201527f3acaa4293506badc3b029f94990e48c03c6112c2b5c4ce7c0836f974173060a89060800160405180910390a15050565b60055460009081908190600160a01b900460ff16610a8885670de0b6b3a7640000611309565b610a929190611320565b9050600060065482610aa49190611320565b600554909150600090606490610ac5908490600160a81b900460ff16611309565b610acf9190611320565b9050610adb8183611342565b969095509350505050565b610aee610fc6565b6001600160a01b038116610b535760405162461bcd60e51b815260206004820152602660248201527f4f776e61626c653a206e6577206f776e657220697320746865207a65726f206160448201526564647265737360d01b6064820152608401610548565b610b5c81611020565b50565b6001600160a01b038316610bc15760405162461bcd60e51b8152602060048201526024808201527f45524332303a20617070726f76652066726f6d20746865207a65726f206164646044820152637265737360e01b6064820152608401610548565b6001600160a01b038216610c225760405162461bcd60e51b815260206004820152602260248201527f45524332303a20617070726f766520746f20746865207a65726f206164647265604482015261737360f01b6064820152608401610548565b6001600160a01b0383811660008181526001602090815260408083209487168084529482529182902085905590518481527f8c5be1e5ebec7d5bd14f71427d1e84f3dd0314c0f7b2291e5b200ac8c7c3b92591015b60405180910390a3505050565b6000610c9084846108fa565b905060001981146106a15781811015610ceb5760405162461bcd60e51b815260206004820152601d60248201527f45524332303a20696e73756666696369656e7420616c6c6f77616e63650000006044820152606401610548565b6106a18484848403610b5f565b6001600160a01b038316610d5c5760405162461bcd60e51b815260206004820152602560248201527f45524332303a207472616e736665722066726f6d20746865207a65726f206164604482015264647265737360d81b6064820152608401610548565b6001600160a01b038216610dbe5760405162461bcd60e51b815260206004820152602360248201527f45524332303a207472616e7366657220746f20746865207a65726f206164647260448201526265737360e81b6064820152608401610548565b6001600160a01b03831660009081526020819052604090205481811015610e365760405162461bcd60e51b815260206004820152602660248201527f45524332303a207472616e7366657220616d6f756e7420657863656564732062604482015265616c616e636560d01b6064820152608401610548565b6001600160a01b03848116600081815260208181526040808320878703905593871680835291849020805487019055925185815290927fddf252ad1be2c89b69c2b068fc378daa952ba7f163c4a11628f55a4df523b3ef910160405180910390a36106a1565b6001600160a01b038216610efc5760405162461bcd60e51b815260206004820152602160248201527f45524332303a206275726e2066726f6d20746865207a65726f206164647265736044820152607360f81b6064820152608401610548565b6001600160a01b03821660009081526020819052604090205481811015610f705760405162461bcd60e51b815260206004820152602260248201527f45524332303a206275726e20616d6f756e7420657863656564732062616c616e604482015261636560f01b6064820152608401610548565b6001600160a01b0383166000818152602081815260408083208686039055600280548790039055518581529192917fddf252ad1be2c89b69c2b068fc378daa952ba7f163c4a11628f55a4df523b3ef9101610c77565b6005546001600160a01b031633146106db5760405162461bcd60e51b815260206004820181905260248201527f4f776e61626c653a2063616c6c6572206973206e6f7420746865206f776e65726044820152606401610548565b600580546001600160a01b038381166001600160a01b0319831681179093556040519116919082907f8be0079c531659141344cd1fd0a4f28419497f9722a3daafe3b4186f6b6457e090600090a35050565b6001600160a01b0382166110c85760405162461bcd60e51b815260206004820152601f60248201527f45524332303a206d696e7420746f20746865207a65726f2061646472657373006044820152606401610548565b80600260008282546110da91906112bf565b90915550506001600160a01b038216600081815260208181526040808320805486019055518481527fddf252ad1be2c89b69c2b068fc378daa952ba7f163c4a11628f55a4df523b3ef910160405180910390a35050565b600060208083528351808285015260005b8181101561115e57858101830151858201604001528201611142565b506000604082860101526040601f19601f8301168501019250505092915050565b80356001600160a01b038116811461119657600080fd5b919050565b600080604083850312156111ae57600080fd5b6111b78361117f565b946020939093013593505050565b6000806000606084860312156111da57600080fd5b6111e38461117f565b92506111f16020850161117f565b9150604084013590509250925092565b60006020828403121561121357600080fd5b5035919050565b60006020828403121561122c57600080fd5b6112358261117f565b9392505050565b6000806040838503121561124f57600080fd5b6112588361117f565b91506112666020840161117f565b90509250929050565b600181811c9082168061128357607f821691505b6020821081036112a357634e487b7160e01b600052602260045260246000fd5b50919050565b634e487b7160e01b600052601160045260246000fd5b808201808211156104dc576104dc6112a9565b6020808252601d908201527f416d6f756e74206d7573742062652067726561746572207468616e2030000000604082015260600190565b80820281158282048414176104dc576104dc6112a9565b60008261133d57634e487b7160e01b600052601260045260246000fd5b500490565b818103818111156104dc576104dc6112a956fea26469706673582212201a03f96b66135310627c5c87d3ad4bb95da218e7a170b505eabe80deb299e6fe64736f6c63430008110033",
    "linkReferences": {}
  },
  "methodIdentifiers": {
    "allowance(address,address)": "dd62ed3e",
    "approve(address,uint256)": "095ea7b3",
    "balanceOf(address)": "70a08231",
    "calculatePriceForSale(uint256)": "e1dee0d7",
    "decimals()": "313ce567",
    "decreaseAllowance(address,uint256)": "a457c2d7",
    "depositCollateral(uint256)": "bad4a01f",
    "getExchangeRate(uint256)": "62aaf089",
    "increaseAllowance(address,uint256)": "39509351",
    "name()": "06fdde03",
    "owner()": "8da5cb5b",
    "priceFeed()": "741bef1a",
    "ratio()": "71ca337d",
    "renounceOwnership()": "715018a6",
    "supplyCap()": "8f770ad0",
    "symbol()": "95d89b41",
    "tax()": "99c8d556",
    "totalSupply()": "18160ddd",
    "transfer(address,uint256)": "a9059cbb",
    "transferFrom(address,address,uint256)": "23b872dd",
    "transferOwnership(address)": "f2fde38b",
    "withdrawCollateral(uint256)": "6112fe2e",
    "withdrawTax()": "dfa20f0a"
  },
  "id": 0
}